:020000020000FC
:10008C000C9468008098829800E000B900950CB937
:10009C0008B9B8E2A0E0D8E2C4E009B900950DB9FE
:1000AC000D930D930D930C930091900402600093AB
:1000BC00900400919204026000939204789480D092
:1000CC0011D0FDCF0F930FB70F93F89400918904C3
:1000DC0000FD0FD00091890402FD13D00F910FBFCA
:1000EC000F91189578E086E08A95F1F77A95D9F713
:1000FC00089543D048D04AD052D001E000938904EF
:10010C000895B8E2A0E020E01D9112953D91132BCB
:10011C000D9102953C91032B80D0B8E2A9E030E020
:10012C003F29307F32953D9330E03F293F703D931E
:10013C0030E03E29307F32953D9330E03E293F70D0
:10014C003D93B8E2A4E020E02F29207F229571D0C6
:10015C002D9320E02F292F706CD02D9320E02E2989
:10016C00207F229566D02D9320E02E292F7061D010
:10017C002D9304E000938904089528E00795111F3E
:10018C002A95E1F708951A301895089523E0B8E2FE
:10019C00A0E02A95A20F3D913C93C9F70895A0E0E9
:1001AC00B8E21C9344E04A95B8E2A0E0D8E2C4E07F
:1001BC00A40FC40F2C913DD028834030A1F7089593
:1001CC0064E070E070930828C4E010910828409116
:1001DC0008281370C10F288150E8439556954A950D
:1001EC00E9F7550F509559B92DB913951093082867
:1001FC006A9551F708953295CE2CDF2CEE0CFF1C2E
:10020C00CC0CDD1CCC0CDD1CCC0CDD1CEC0CFD1C5E
:10021C003F70E30E08F4F39408952F70FF24E22E40
:10022C00312FE9DF312FE8DF302FE5DF302FE4DF2E
:10023C0008952F70F2E0EEE400E0E20FF01F24913D
:10024C000895014F12064C24200F0004086031421F
:02025C00303838
:00000001FF
