:020000020000FC
:040000000C94480014
:04001C000C948B00B5
:10008C000C9477008098829800E000B900950CB928
:10009C0008B9B8E2A0E0D8E2C4E000950D930D9346
:1000AC000D930C93A0E0009308280091900402603B
:1000BC00009390040091920402600093920400E07B
:1000CC000093010A01E000930A0A0AE00093260A51
:1000DC0000E00093270A0DE00093000A78940000DA
:1000EC00FECF0F930FB70F93F8940091890400FD86
:1000FC0017D00091890402FD20D0989A9A9A98986A
:10010C009A980F910FBF0F9118950F930FB70F93EC
:10011C0070D001E000930B0A0F910FBF0F9118954F
:10012C0012B11095012F45D01A3030F448D050D070
:10013C0001E00093890408951895B8E2A0E020E04E
:10014C001D9112953D91132B0D9102953C91032B12
:10015C0076D0B8E2A9E030E03F29307F32953D936C
:10016C0030E03F293F703D9330E03E29307F32959F
:10017C003D9330E03E293F703D93B8E2A4E020E08F
:10018C002F29207F229567D02D9320E02F292F70C7
:10019C0062D02D9320E02E29207F22955CD02D93C8
:1001AC0020E02E292F7057D02D9304E00093890462
:1001BC00089528E00795111F2A95E1F7089523E08B
:1001CC00B8E2A0E02A95A20F3D913C93C9F708959F
:1001DC00A0E0B8E21C9344E04A95B8E2A0E0D8E273
:1001EC00C4E0A40FC40F2C9136D028834030A1F763
:1001FC000895C4E0109108281370412FC10F288175
:10020C0050E8439556954A95E9F7550F509559B9CD
:10021C002DB913951093082808953295CE2CDF2C08
:10022C00EE0CFF1CCC0CDD1CCC0CDD1CCC0CDD1C3A
:10023C00EC0CFD1C3F70E30E08F4F39408952F7042
:10024C00FF24E22E312FE9DF312FE8DF302FE5DFFD
:10025C00302FE4DF08952F70F2E0E2E700E0E20FC8
:10026C00F01F24910895014F12064C24200F000416
:06027C0008603142303839
:00000001FF
