:020000020000FC
:040000000C942E002E
:04001C000C945600EA
:100058000C946A0083980FEF08B90CB9009509B998
:100068000DB900E00093010A01E000930A0A09E1D2
:100078000093260A00E00093270A0DE00093000A87
:1000880000E20093A0000BE00093060605E0009351
:10009800020601E00093000601E000930806789448
:1000A8000C9465000F930FB70F931F931FEF09B1BF
:1000B800012709B91F910F910FBF0F9178940C94E4
:1000C80067000000FECF2AD03ED0FDCF0F930FB7B8
:1000D8000F930B2F0F930A2F0F930F2F0F930E2FA2
:1000E8000F931F932F933F931091110600911006C1
:1000F80031D001E000930A0601E0009308063F9121
:100108002F911F910F91E02F0F91F02F0F91A02F9A
:100118000F91B02F0F910FBF0F911895D8E2C0E043
:10012800109104281370412FC10F288150E843957E
:1001380056954A95E9F7550F509559B92DB9139524
:1001480010930428089578E086E08A95F1F77A9567
:10015800D9F70895B8E2A0E0212F207F22950FD08B
:100168002D93212F2F700BD02D93202F207F229598
:1001780006D02D93202F2F7002D02C9308952F7026
:10018800F1E0E6E930E0E20FF31F24910895014F12
:0E01980012064C24200F00040860314230385B
:00000001FF
