:020000020000FC
:04001C000C948A00B6
:10008C000C947A008098829800E000B900950CB925
:10009C0008B9B8E2A0E0D8E2C4E000950D930D9346
:1000AC000D930C93A0E000919004026000939004D7
:1000BC000091920402600093920400E00093010A04
:1000CC0001E000930A0A05E40093260A01E000937C
:1000DC00270A0DE00093000A00910A0A01600093C0
:1000EC000A0A78940000FECF0F930FB70F93F89481
:1000FC000091890400FD13D00091890402FD19D0F0
:10010C000F910FBF0F9118950F930FB70F936DD0E1
:10011C0001E000930B0A0F910FBF0F91189545D07A
:10012C001A3030F448D050D001E00093890408957F
:10013C001895B8E2A0E020E01D9112953D91132B8B
:10014C000D9102953C91032B7DD0B8E2A9E030E0F3
:10015C003F29307F32953D9330E03F293F703D93EE
:10016C0030E03E29307F32953D9330E03E293F70A0
:10017C003D93B8E2A4E020E02F29207F22956ED099
:10018C002D9320E02F292F7069D02D9320E02E295C
:10019C00207F229563D02D9320E02E292F705ED0E6
:1001AC002D9304E000938904089528E00795111F0E
:1001BC002A95E1F7089523E0B8E2A0E02A95A20F72
:1001CC003D913C93C9F70895A0E0B8E21C9344E03C
:1001DC004A95B8E2A0E0D8E2C4E0A40FC40F2C9179
:1001EC003DD028834030A1F7089564E070E070930F
:1001FC000828C4E010910828409108281370C10FFA
:10020C00288150E8439556954A95E9F7550F509536
:10021C0059B92DB91395109308286A9551F708957B
:10022C003295CE2CDF2CEE0CFF1CCC0CDD1CCC0C38
:10023C00DD1CCC0CDD1CEC0CFD1C3F70E30E08F43B
:10024C00F39408952F70FF24E22E312FE9DF312F24
:10025C00E8DF302FE5DF302FE4DF08952F70F2E078
:10026C00E8E700E0E20FF01F24910895014F120619
:0C027C004C24200F000408603142303890
:00000001FF
