:020000020000FC
:040000000C942E002E
:04001C000C946C00D4
:100058000C94830083980FEF08B90CB9009509B97F
:100068000DB900E00093010A01E000930A0A09E1D2
:100078000093260A00E00093270A0DE00093000A87
:1000880000E20093A0000BE00093060605E0009351
:10009800020601E00093000601E000930A0606D07C
:1000A80001E00093080678940C946A0000E009B90E
:1000B80003D00FEF09B908953FEF2FEF19E01A9514
:1000C800F1F72A95D9F73A95C1F708950000FECFC0
:1000D8000F930FB70F931F932F934F935F93CF9364
:1000E800DF9349D001E000930B0ADF91CF915F9134
:1000F8004F912F911F910F910FBF0F9118950F934B
:100108000FB70F931F932F933F934F935F936F9363
:100118007F938F939F93AF93BF93CF93DF93EF9387
:10012800FF9339E024EC10911106009110067DD060
:10013800569547953795569547953795032F142F1C
:10014800045F114050D02DD03DD001E00093080647
:10015800FF91EF91DF91CF91BF91AF919F918F91D7
:100168007F916F915F914F913F912F911F910F91C7
:100178000FBF0F911895D8E2C4E0109108281370AA
:10018800412FC10F2881206850E8439556954A951C
:10019800E9F7550F509559B92DB9139510930828BB
:1001A8000895B8E2A0E0372F307F32953D93372F7E
:1001B8003F703D93362F307F32953D93362F3F70F9
:1001C8003C930895B8E2A0E01C9344E04A95B8E255
:1001D800A0E0D8E2C4E0A40FC40F2C9135D0288346
:1001E8004030A1F7089530E02AE00CD06E2D0AD0F7
:1001F800E2946E2907D07E2D05D0E2947E2902D0A4
:100208008E2D0895EE24FF1841E1001F111F4A9515
:1002180009F40895EE1CFF1CE21AF30A20F4E20E1A
:10022800F31E8894F2CF0894F0CF5527442760E155
:100238003695279510F4400F511F579547953795D8
:1002480027956A95B9F708952F70F2E0E0E630E057
:10025800E20FF31F24910895014F12064C24200F3A
:08026800000408603142303847
:00000001FF
