:020000020000FC
:040000000C9410004C
:10001C000C94380081980FEF08B90CB9009509B908
:10002C000DB900E00093010A01E000930A0A09E10E
:10003C000093260A00E00093270A0DE00093000AC3
:10004C0000E20093A00009E00093060605E000938F
:10005C00020601E00093000601E000930806789484
:10006C000C9447000F930FB70F931F931FEF09B119
:10007C00012709B91F910F910FBF0F9178940C9420
:10008C0049000000FECF12D026D030910B0630FD77
:10009C0001D0F9CF109111060091100623D001E088
:1000AC0000930A0601E0009308060895D8E2C0E028
:1000BC00109104281370412FC10F288150E84395EB
:1000CC0056954A95E9F7550F509559B92DB9139591
:1000DC0010930428089578E086E08A95F1F77A95D4
:1000EC00D9F70895B8E2A0E0212F207F22950FD0F8
:1000FC002D93212F2F700BD02D93202F207F229505
:10010C0006D02D93202F2F7002D02C9308952F7092
:10011C00F1E0EAE230E0E20FF31F24910895014F81
:0E012C0012064C24200F0004086031423038C7
:00000001FF
