:020000020000FC
:040000000C942E002E
:04001C000C945600EA
:100058000C946A0083980FEF08B90CB9009509B998
:100068000DB900E00093010A01E000930A0A09E1D2
:100078000093260A00E00093270A0DE00093000A87
:1000880000E20093A0000BE00093060605E0009351
:10009800020601E00093000601E000930806789448
:1000A8000C9465000F930FB70F931F931FEF09B1BF
:1000B800012709B91F910F910FBF0F9178940C94E4
:1000C80067000000FECF37D04BD0FDCF0F930FB79E
:1000D8000F930B2F0F930A2F0F930F2F0F930E2FA2
:1000E8000F931F932F933F9339E024EC109111063F
:1000F800009110067FD02695179526951795012F04
:10010800122F045F114054D032D041D001E0009347
:100118000A0601E0009308063F912F911F910F9165
:10012800E02F0F91F02F0F91A02F0F91B02F0F916B
:100138000FBF0F911895D8E2C4E0109108281370EA
:10014800412FC10F288150E8439556954A95E9F704
:10015800550F509559B92DB913951093082808953E
:1001680078E086E08A95F1F77A95D9F70895B8E2AC
:10017800A0E0372F307F32953D93372F3F703D9366
:10018800362F307F32953D93362F3F703C93B8E23F
:10019800A0E01C9344E04A95B8E2A0E0D8E2C4E0AD
:1001A800A40FC40F2C9135D028834030A1F70895AF
:1001B80030E02AE00CD06E2D0AD0E2946E2907D0E8
:1001C8007E2D05D0E2947E2902D08E2D0895EE244E
:1001D800FF1841E1001F111F4A9509F40895EE1C0C
:1001E800FF1CE21AF30A20F4E20EF31E8894F2CF01
:1001F8000894F0CF5527442760E13695279510F4E9
:10020800400F511F57954795379527956A95B9F728
:1002180008952F70F2E0EAE230E0E20FF31F249134
:100228000895014F12064C24200F00040860314243
:0202380030385C
:00000001FF
