:020000020000FC
:100000008098819A8298839A00E000B900950CB993
:1000100008B9B8E2A0E0D8E2C4E000950D930395DA
:100020000D9303950D9303950C938998899A8B985A
:100030008B9A7AD04CD002D00DD0FBCFB8E2A0E0A2
:10004000909B089502B14AD04FD054D05CD089988B
:10005000899A0895929B0895B8E2A0E020E01D914E
:1000600012953D91132B0D9102953C91032B89D054
:10007000B8E2A9E030E03F29307F32953D9330E08F
:100080003F293F703D9330E03E29307F32953D93CC
:1000900030E03E293F703D93B8E2A4E020E02F29F4
:1000A000207F22957AD02D9320E02F292F7075D0B4
:1000B0002D9320E02E29207F22956FD02D9320E0D4
:1000C0002E292F706AD02D938B988B9A089578E003
:1000D00086E08A95F1F77A95D9F7089528E0079593
:1000E000111F2A95E1F708951A3008F408958998A8
:1000F000899A9FCF23E0B8E2A0E02A95A20F3D9114
:100100003C93C9F70895A0E0B8E21C9344E04A95F7
:10011000B8E2A0E0D8E2C4E0A40FC40F2C913DD017
:1001200028834030A1F7089564E070E070930828B8
:10013000C4E010910828409108281370C10F28814D
:1001400050E8439556954A95E9F7550F509559B99A
:100150002DB91395109308286A9551F70895329593
:10016000CE2CDF2CEE0CFF1CCC0CDD1CCC0CDD1CD3
:10017000CC0CDD1CEC0CFD1C3F70E30E08F4F3947A
:1001800008952F70FF24E22E312FE9DF312FE8DFB1
:10019000302FE5DF302FE4DF08952F70F1E0EAEA39
:1001A00000E0E20FF01F24910895014F12064C2445
:0A01B000200F0004086031423038CF
:00000001FF
